{
  "_format": "hh-sol-artifact-1",
  "contractName": "Presale",
  "sourceName": "contracts/Presale.sol",
  "abi": [
    {
      "inputs": [
        {
          "internalType": "address",
          "name": "_usdt",
          "type": "address"
        },
        {
          "internalType": "address",
          "name": "_saleToken",
          "type": "address"
        }
      ],
      "stateMutability": "nonpayable",
      "type": "constructor"
    },
    {
      "anonymous": false,
      "inputs": [],
      "name": "PresaleEnded",
      "type": "event"
    },
    {
      "anonymous": false,
      "inputs": [
        {
          "indexed": true,
          "internalType": "address",
          "name": "buyer",
          "type": "address"
        },
        {
          "indexed": false,
          "internalType": "uint256",
          "name": "amount",
          "type": "uint256"
        }
      ],
      "name": "TokensClaimed",
      "type": "event"
    },
    {
      "anonymous": false,
      "inputs": [
        {
          "indexed": true,
          "internalType": "address",
          "name": "buyer",
          "type": "address"
        },
        {
          "indexed": false,
          "internalType": "uint256",
          "name": "usdtAmount",
          "type": "uint256"
        },
        {
          "indexed": false,
          "internalType": "uint256",
          "name": "tokenAmount",
          "type": "uint256"
        }
      ],
      "name": "TokensPurchased",
      "type": "event"
    },
    {
      "anonymous": false,
      "inputs": [
        {
          "indexed": true,
          "internalType": "address",
          "name": "to",
          "type": "address"
        },
        {
          "indexed": false,
          "internalType": "uint256",
          "name": "usdtAmount",
          "type": "uint256"
        },
        {
          "indexed": false,
          "internalType": "uint256",
          "name": "tokenAmount",
          "type": "uint256"
        }
      ],
      "name": "Withdrawn",
      "type": "event"
    },
    {
      "inputs": [],
      "name": "TOKEN_DECIMALS",
      "outputs": [
        {
          "internalType": "uint8",
          "name": "",
          "type": "uint8"
        }
      ],
      "stateMutability": "view",
      "type": "function"
    },
    {
      "inputs": [],
      "name": "TOKEN_PRICE_USDT",
      "outputs": [
        {
          "internalType": "uint256",
          "name": "",
          "type": "uint256"
        }
      ],
      "stateMutability": "view",
      "type": "function"
    },
    {
      "inputs": [],
      "name": "TOTAL_PRESALE_TOKENS",
      "outputs": [
        {
          "internalType": "uint256",
          "name": "",
          "type": "uint256"
        }
      ],
      "stateMutability": "view",
      "type": "function"
    },
    {
      "inputs": [],
      "name": "USDT_DECIMALS",
      "outputs": [
        {
          "internalType": "uint8",
          "name": "",
          "type": "uint8"
        }
      ],
      "stateMutability": "view",
      "type": "function"
    },
    {
      "inputs": [],
      "name": "VESTING_PERIODS",
      "outputs": [
        {
          "internalType": "uint256",
          "name": "",
          "type": "uint256"
        }
      ],
      "stateMutability": "view",
      "type": "function"
    },
    {
      "inputs": [
        {
          "internalType": "address",
          "name": "",
          "type": "address"
        }
      ],
      "name": "allocations",
      "outputs": [
        {
          "internalType": "uint256",
          "name": "owlsAmount",
          "type": "uint256"
        },
        {
          "internalType": "uint256",
          "name": "claimed",
          "type": "uint256"
        },
        {
          "internalType": "uint256",
          "name": "usdtAmount",
          "type": "uint256"
        }
      ],
      "stateMutability": "view",
      "type": "function"
    },
    {
      "inputs": [
        {
          "internalType": "uint256",
          "name": "usdtAmount",
          "type": "uint256"
        }
      ],
      "name": "buyTokens",
      "outputs": [],
      "stateMutability": "nonpayable",
      "type": "function"
    },
    {
      "inputs": [],
      "name": "claimTokens",
      "outputs": [],
      "stateMutability": "nonpayable",
      "type": "function"
    },
    {
      "inputs": [],
      "name": "endPresale",
      "outputs": [],
      "stateMutability": "nonpayable",
      "type": "function"
    },
    {
      "inputs": [],
      "name": "getAmountStatus",
      "outputs": [
        {
          "internalType": "uint256",
          "name": "soldAmount",
          "type": "uint256"
        },
        {
          "internalType": "uint256",
          "name": "totalAmount",
          "type": "uint256"
        }
      ],
      "stateMutability": "view",
      "type": "function"
    },
    {
      "inputs": [],
      "name": "getRemainingTokens",
      "outputs": [
        {
          "internalType": "uint256",
          "name": "",
          "type": "uint256"
        }
      ],
      "stateMutability": "view",
      "type": "function"
    },
    {
      "inputs": [],
      "name": "getSaleTokenPrice",
      "outputs": [
        {
          "internalType": "uint256",
          "name": "price",
          "type": "uint256"
        },
        {
          "internalType": "uint8",
          "name": "decimals",
          "type": "uint8"
        }
      ],
      "stateMutability": "pure",
      "type": "function"
    },
    {
      "inputs": [
        {
          "internalType": "address",
          "name": "user",
          "type": "address"
        }
      ],
      "name": "getUserAllocation",
      "outputs": [
        {
          "internalType": "uint256",
          "name": "total",
          "type": "uint256"
        },
        {
          "internalType": "uint256",
          "name": "claimed",
          "type": "uint256"
        },
        {
          "internalType": "uint256",
          "name": "claimable",
          "type": "uint256"
        }
      ],
      "stateMutability": "view",
      "type": "function"
    },
    {
      "inputs": [],
      "name": "isPresaleEnded",
      "outputs": [
        {
          "internalType": "bool",
          "name": "",
          "type": "bool"
        }
      ],
      "stateMutability": "view",
      "type": "function"
    },
    {
      "inputs": [],
      "name": "maxPurchase",
      "outputs": [
        {
          "internalType": "uint256",
          "name": "",
          "type": "uint256"
        }
      ],
      "stateMutability": "view",
      "type": "function"
    },
    {
      "inputs": [],
      "name": "minPurchase",
      "outputs": [
        {
          "internalType": "uint256",
          "name": "",
          "type": "uint256"
        }
      ],
      "stateMutability": "view",
      "type": "function"
    },
    {
      "inputs": [],
      "name": "owner",
      "outputs": [
        {
          "internalType": "address",
          "name": "",
          "type": "address"
        }
      ],
      "stateMutability": "view",
      "type": "function"
    },
    {
      "inputs": [],
      "name": "presaleEndTime",
      "outputs": [
        {
          "internalType": "uint256",
          "name": "",
          "type": "uint256"
        }
      ],
      "stateMutability": "view",
      "type": "function"
    },
    {
      "inputs": [],
      "name": "presaleEnded",
      "outputs": [
        {
          "internalType": "bool",
          "name": "",
          "type": "bool"
        }
      ],
      "stateMutability": "view",
      "type": "function"
    },
    {
      "inputs": [
        {
          "internalType": "uint256",
          "name": "usdtAmount",
          "type": "uint256"
        }
      ],
      "name": "previewTokenAmount",
      "outputs": [
        {
          "internalType": "uint256",
          "name": "",
          "type": "uint256"
        }
      ],
      "stateMutability": "pure",
      "type": "function"
    },
    {
      "inputs": [],
      "name": "saleToken",
      "outputs": [
        {
          "internalType": "contract IERC20",
          "name": "",
          "type": "address"
        }
      ],
      "stateMutability": "view",
      "type": "function"
    },
    {
      "inputs": [
        {
          "internalType": "uint256",
          "name": "_min",
          "type": "uint256"
        },
        {
          "internalType": "uint256",
          "name": "_max",
          "type": "uint256"
        }
      ],
      "name": "setMinMax",
      "outputs": [],
      "stateMutability": "nonpayable",
      "type": "function"
    },
    {
      "inputs": [],
      "name": "totalSoldAmount",
      "outputs": [
        {
          "internalType": "uint256",
          "name": "",
          "type": "uint256"
        }
      ],
      "stateMutability": "view",
      "type": "function"
    },
    {
      "inputs": [
        {
          "internalType": "address",
          "name": "newOwner",
          "type": "address"
        }
      ],
      "name": "updateOwner",
      "outputs": [],
      "stateMutability": "nonpayable",
      "type": "function"
    },
    {
      "inputs": [],
      "name": "usdt",
      "outputs": [
        {
          "internalType": "contract IERC20",
          "name": "",
          "type": "address"
        }
      ],
      "stateMutability": "view",
      "type": "function"
    },
    {
      "inputs": [],
      "name": "vestingInterval",
      "outputs": [
        {
          "internalType": "uint256",
          "name": "",
          "type": "uint256"
        }
      ],
      "stateMutability": "view",
      "type": "function"
    },
    {
      "inputs": [],
      "name": "withdrawFunds",
      "outputs": [],
      "stateMutability": "nonpayable",
      "type": "function"
    }
  ],
  "bytecode": "0x608060405262989680600355633b9aca006004556201518060055560006006556000600760006101000a81548160ff02191690831515021790555034801561004657600080fd5b506040516124943803806124948339818101604052810190610068919061023d565b600073ffffffffffffffffffffffffffffffffffffffff168273ffffffffffffffffffffffffffffffffffffffff16141580156100d25750600073ffffffffffffffffffffffffffffffffffffffff168173ffffffffffffffffffffffffffffffffffffffff1614155b610111576040517f08c379a0000000000000000000000000000000000000000000000000000000008152600401610108906102da565b60405180910390fd5b336000806101000a81548173ffffffffffffffffffffffffffffffffffffffff021916908373ffffffffffffffffffffffffffffffffffffffff16021790555081600160006101000a81548173ffffffffffffffffffffffffffffffffffffffff021916908373ffffffffffffffffffffffffffffffffffffffff16021790555080600260006101000a81548173ffffffffffffffffffffffffffffffffffffffff021916908373ffffffffffffffffffffffffffffffffffffffff16021790555050506102fa565b600080fd5b600073ffffffffffffffffffffffffffffffffffffffff82169050919050565b600061020a826101df565b9050919050565b61021a816101ff565b811461022557600080fd5b50565b60008151905061023781610211565b92915050565b60008060408385031215610254576102536101da565b5b600061026285828601610228565b925050602061027385828601610228565b9150509250929050565b600082825260208201905092915050565b7f5a65726f20616464726573732070726f76696465640000000000000000000000600082015250565b60006102c460158361027d565b91506102cf8261028e565b602082019050919050565b600060208201905081810360008301526102f3816102b7565b9050919050565b61218b806103096000396000f3fe608060405234801561001057600080fd5b50600436106101a95760003560e01c8063880cdc31116100f9578063b920ade211610097578063e580b2b011610071578063e580b2b01461045a578063e985e36714610478578063ef2cfd1a14610496578063f8736672146104b4576101a9565b8063b920ade2146103d9578063d751f8111461040b578063e51626aa1461042a576101a9565b8063a43be57b116100d3578063a43be57b14610377578063a681f95014610381578063af35ae271461039d578063b8e50cab146103bb576101a9565b8063880cdc311461031f5780638da5cb5b1461033b578063977b055b14610359576101a9565b80633610724e116101665780635b7f415c116101405780635b7f415c146102a7578063617d7940146102c5578063763fd2ab146102e35780637decf27f14610301576101a9565b80633610724e1461024f57806348c54b9d1461026b57806352a9039c14610275576101a9565b806306c8e316146101ae5780631e7bace0146101cd57806324600fc3146101eb578063249b7c19146101f55780632f48ab7d1461021357806333b5b62e14610231575b600080fd5b6101b66104d2565b6040516101c492919061152b565b60405180910390f35b6101d56104e2565b6040516101e29190611554565b60405180910390f35b6101f36104e7565b005b6101fd6107f4565b60405161020a9190611554565b60405180910390f35b61021b6107fa565b60405161022891906115ee565b60405180910390f35b610239610820565b6040516102469190611554565b60405180910390f35b6102696004803603810190610264919061163a565b610826565b005b610273610c10565b005b61028f600480360381019061028a91906116a5565b610ee1565b60405161029e939291906116d2565b60405180910390f35b6102af610f0b565b6040516102bc9190611709565b60405180910390f35b6102cd610f10565b6040516102da9190611554565b60405180910390f35b6102eb610f16565b6040516102f89190611554565b60405180910390f35b610309610f26565b604051610316919061173f565b60405180910390f35b610339600480360381019061033491906116a5565b610f3d565b005b61034361107d565b6040516103509190611769565b60405180910390f35b6103616110a1565b60405161036e9190611554565b60405180910390f35b61037f6110a7565b005b61039b60048036038101906103969190611784565b6111d5565b005b6103a56112b8565b6040516103b29190611554565b60405180910390f35b6103c361135b565b6040516103d09190611554565b60405180910390f35b6103f360048036038101906103ee91906116a5565b611361565b604051610402939291906116d2565b60405180910390f35b610413611468565b6040516104219291906117c4565b60405180910390f35b610444600480360381019061043f919061163a565b611483565b6040516104519190611554565b60405180910390f35b6104626114b2565b60405161046f919061173f565b60405180910390f35b6104806114c5565b60405161048d91906115ee565b60405180910390f35b61049e6114eb565b6040516104ab9190611709565b60405180910390f35b6104bc6114f0565b6040516104c99190611554565b60405180910390f35b6000806111946006915091509091565b600a81565b60008054906101000a900473ffffffffffffffffffffffffffffffffffffffff1673ffffffffffffffffffffffffffffffffffffffff163373ffffffffffffffffffffffffffffffffffffffff1614610575576040517f08c379a000000000000000000000000000000000000000000000000000000000815260040161056c9061184a565b60405180910390fd5b6000600160009054906101000a900473ffffffffffffffffffffffffffffffffffffffff1673ffffffffffffffffffffffffffffffffffffffff166370a08231306040518263ffffffff1660e01b81526004016105d29190611769565b602060405180830381865afa1580156105ef573d6000803e3d6000fd5b505050506040513d601f19601f82011682018060405250810190610613919061187f565b90506000600260009054906101000a900473ffffffffffffffffffffffffffffffffffffffff1673ffffffffffffffffffffffffffffffffffffffff166370a08231306040518263ffffffff1660e01b81526004016106729190611769565b602060405180830381865afa15801561068f573d6000803e3d6000fd5b505050506040513d601f19601f820116820180604052508101906106b3919061187f565b9050600082111561078057600160009054906101000a900473ffffffffffffffffffffffffffffffffffffffff1673ffffffffffffffffffffffffffffffffffffffff1663a9059cbb60008054906101000a900473ffffffffffffffffffffffffffffffffffffffff16846040518363ffffffff1660e01b815260040161073b9291906118ac565b6020604051808303816000875af115801561075a573d6000803e3d6000fd5b505050506040513d601f19601f8201168201806040525081019061077e9190611901565b505b60008054906101000a900473ffffffffffffffffffffffffffffffffffffffff1673ffffffffffffffffffffffffffffffffffffffff167f92ccf450a286a957af52509bc1c9939d1a6a481783e142e41e2499f0bb66ebc683836040516107e89291906117c4565b60405180910390a25050565b60085481565b600160009054906101000a900473ffffffffffffffffffffffffffffffffffffffff1681565b60035481565b600760009054906101000a900460ff1615610876576040517f08c379a000000000000000000000000000000000000000000000000000000000815260040161086d9061197a565b60405180910390fd5b6003548110156108bb576040517f08c379a00000000000000000000000000000000000000000000000000000000081526004016108b2906119e6565b60405180910390fd5b600454811115610900576040517f08c379a00000000000000000000000000000000000000000000000000000000081526004016108f790611a52565b60405180910390fd5b6000600160009054906101000a900473ffffffffffffffffffffffffffffffffffffffff1673ffffffffffffffffffffffffffffffffffffffff1663dd62ed3e33306040518363ffffffff1660e01b815260040161095f929190611a72565b602060405180830381865afa15801561097c573d6000803e3d6000fd5b505050506040513d601f19601f820116820180604052508101906109a0919061187f565b9050818110156109e5576040517f08c379a00000000000000000000000000000000000000000000000000000000081526004016109dc90611ae7565b60405180910390fd5b60006111946012600a6109f89190611c69565b84610a039190611cb4565b610a0d9190611d25565b905080600960003373ffffffffffffffffffffffffffffffffffffffff1673ffffffffffffffffffffffffffffffffffffffff1681526020019081526020016000206000016000828254610a619190611d56565b9250508190555082600960003373ffffffffffffffffffffffffffffffffffffffff1673ffffffffffffffffffffffffffffffffffffffff1681526020019081526020016000206002016000828254610aba9190611d56565b925050819055508060066000828254610ad39190611d56565b92505081905550600160009054906101000a900473ffffffffffffffffffffffffffffffffffffffff1673ffffffffffffffffffffffffffffffffffffffff166323b872dd3330866040518463ffffffff1660e01b8152600401610b3993929190611d8a565b6020604051808303816000875af1158015610b58573d6000803e3d6000fd5b505050506040513d601f19601f82011682018060405250810190610b7c9190611901565b610bbb576040517f08c379a0000000000000000000000000000000000000000000000000000000008152600401610bb290611e0d565b60405180910390fd5b3373ffffffffffffffffffffffffffffffffffffffff167f8fafebcaf9d154343dad25669bfa277f4fbacd7ac6b0c4fed522580e040a0f338483604051610c039291906117c4565b60405180910390a2505050565b600760009054906101000a900460ff16610c5f576040517f08c379a0000000000000000000000000000000000000000000000000000000008152600401610c5690611e79565b60405180910390fd5b6000600960003373ffffffffffffffffffffffffffffffffffffffff1673ffffffffffffffffffffffffffffffffffffffff16815260200190815260200160002090506000816000015411610ce9576040517f08c379a0000000000000000000000000000000000000000000000000000000008152600401610ce090611ee5565b60405180910390fd5b600060085442610cf99190611f05565b9050600060055482610d0b9190611d25565b9050600a811115610d1b57600a90505b6000600a828560000154610d2f9190611cb4565b610d399190611d25565b90506000846001015482610d4d9190611f05565b905060008111610d92576040517f08c379a0000000000000000000000000000000000000000000000000000000008152600401610d8990611f85565b60405180910390fd5b80856001016000828254610da69190611d56565b92505081905550600260009054906101000a900473ffffffffffffffffffffffffffffffffffffffff1673ffffffffffffffffffffffffffffffffffffffff1663a9059cbb33836040518363ffffffff1660e01b8152600401610e0a9291906118ac565b6020604051808303816000875af1158015610e29573d6000803e3d6000fd5b505050506040513d601f19601f82011682018060405250810190610e4d9190611901565b610e8c576040517f08c379a0000000000000000000000000000000000000000000000000000000008152600401610e8390611ff1565b60405180910390fd5b3373ffffffffffffffffffffffffffffffffffffffff167f896e034966eaaf1adc54acc0f257056febbd300c9e47182cf761982cf1f5e43082604051610ed29190611554565b60405180910390a25050505050565b60096020528060005260406000206000915090508060000154908060010154908060020154905083565b601281565b60065481565b6b0cecb8f27f4200f3a000000081565b6000600760009054906101000a900460ff16905090565b60008054906101000a900473ffffffffffffffffffffffffffffffffffffffff1673ffffffffffffffffffffffffffffffffffffffff163373ffffffffffffffffffffffffffffffffffffffff1614610fcb576040517f08c379a0000000000000000000000000000000000000000000000000000000008152600401610fc29061184a565b60405180910390fd5b600073ffffffffffffffffffffffffffffffffffffffff168173ffffffffffffffffffffffffffffffffffffffff160361103a576040517f08c379a00000000000000000000000000000000000000000000000000000000081526004016110319061205d565b60405180910390fd5b806000806101000a81548173ffffffffffffffffffffffffffffffffffffffff021916908373ffffffffffffffffffffffffffffffffffffffff16021790555050565b60008054906101000a900473ffffffffffffffffffffffffffffffffffffffff1681565b60045481565b60008054906101000a900473ffffffffffffffffffffffffffffffffffffffff1673ffffffffffffffffffffffffffffffffffffffff163373ffffffffffffffffffffffffffffffffffffffff1614611135576040517f08c379a000000000000000000000000000000000000000000000000000000000815260040161112c9061184a565b60405180910390fd5b600760009054906101000a900460ff1615611185576040517f08c379a000000000000000000000000000000000000000000000000000000000815260040161117c906120c9565b60405180910390fd5b6001600760006101000a81548160ff021916908315150217905550426008819055507f1eb1561f8507eb9bc6988331f66f369e75710f2b4b678ad5b4a52454b6636f5f60405160405180910390a1565b60008054906101000a900473ffffffffffffffffffffffffffffffffffffffff1673ffffffffffffffffffffffffffffffffffffffff163373ffffffffffffffffffffffffffffffffffffffff1614611263576040517f08c379a000000000000000000000000000000000000000000000000000000000815260040161125a9061184a565b60405180910390fd5b808211156112a6576040517f08c379a000000000000000000000000000000000000000000000000000000000815260040161129d90612135565b60405180910390fd5b81600381905550806004819055505050565b6000600260009054906101000a900473ffffffffffffffffffffffffffffffffffffffff1673ffffffffffffffffffffffffffffffffffffffff166370a08231306040518263ffffffff1660e01b81526004016113159190611769565b602060405180830381865afa158015611332573d6000803e3d6000fd5b505050506040513d601f19601f82011682018060405250810190611356919061187f565b905090565b60055481565b600080600080600960008673ffffffffffffffffffffffffffffffffffffffff1673ffffffffffffffffffffffffffffffffffffffff16815260200190815260200160002060405180606001604052908160008201548152602001600182015481526020016002820154815250509050806000015193508060200151925060009150600760009054906101000a900460ff1615611460576000600854426114089190611f05565b905060006005548261141a9190611d25565b9050600a81111561142a57600a90505b6000600a82856000015161143e9190611cb4565b6114489190611d25565b905083602001518161145a9190611f05565b94505050505b509193909250565b6000806006546b0cecb8f27f4200f3a0000000915091509091565b60006111946012600a6114969190611c69565b836114a19190611cb4565b6114ab9190611d25565b9050919050565b600760009054906101000a900460ff1681565b600260009054906101000a900473ffffffffffffffffffffffffffffffffffffffff1681565b600681565b61119481565b6000819050919050565b611509816114f6565b82525050565b600060ff82169050919050565b6115258161150f565b82525050565b60006040820190506115406000830185611500565b61154d602083018461151c565b9392505050565b60006020820190506115696000830184611500565b92915050565b600073ffffffffffffffffffffffffffffffffffffffff82169050919050565b6000819050919050565b60006115b46115af6115aa8461156f565b61158f565b61156f565b9050919050565b60006115c682611599565b9050919050565b60006115d8826115bb565b9050919050565b6115e8816115cd565b82525050565b600060208201905061160360008301846115df565b92915050565b600080fd5b611617816114f6565b811461162257600080fd5b50565b6000813590506116348161160e565b92915050565b6000602082840312156116505761164f611609565b5b600061165e84828501611625565b91505092915050565b60006116728261156f565b9050919050565b61168281611667565b811461168d57600080fd5b50565b60008135905061169f81611679565b92915050565b6000602082840312156116bb576116ba611609565b5b60006116c984828501611690565b91505092915050565b60006060820190506116e76000830186611500565b6116f46020830185611500565b6117016040830184611500565b949350505050565b600060208201905061171e600083018461151c565b92915050565b60008115159050919050565b61173981611724565b82525050565b60006020820190506117546000830184611730565b92915050565b61176381611667565b82525050565b600060208201905061177e600083018461175a565b92915050565b6000806040838503121561179b5761179a611609565b5b60006117a985828601611625565b92505060206117ba85828601611625565b9150509250929050565b60006040820190506117d96000830185611500565b6117e66020830184611500565b9392505050565b600082825260208201905092915050565b7f4e6f74206f776e65720000000000000000000000000000000000000000000000600082015250565b60006118346009836117ed565b915061183f826117fe565b602082019050919050565b6000602082019050818103600083015261186381611827565b9050919050565b6000815190506118798161160e565b92915050565b60006020828403121561189557611894611609565b5b60006118a38482850161186a565b91505092915050565b60006040820190506118c1600083018561175a565b6118ce6020830184611500565b9392505050565b6118de81611724565b81146118e957600080fd5b50565b6000815190506118fb816118d5565b92915050565b60006020828403121561191757611916611609565b5b6000611925848285016118ec565b91505092915050565b7f50726573616c652068617320656e646564000000000000000000000000000000600082015250565b60006119646011836117ed565b915061196f8261192e565b602082019050919050565b6000602082019050818103600083015261199381611957565b9050919050565b7f42656c6f77206d696e696d756d20707572636861736500000000000000000000600082015250565b60006119d06016836117ed565b91506119db8261199a565b602082019050919050565b600060208201905081810360008301526119ff816119c3565b9050919050565b7f41626f7665206d6178696d756d20707572636861736500000000000000000000600082015250565b6000611a3c6016836117ed565b9150611a4782611a06565b602082019050919050565b60006020820190508181036000830152611a6b81611a2f565b9050919050565b6000604082019050611a87600083018561175a565b611a94602083018461175a565b9392505050565b7f416c6c6f77616e636520746f6f206c6f77000000000000000000000000000000600082015250565b6000611ad16011836117ed565b9150611adc82611a9b565b602082019050919050565b60006020820190508181036000830152611b0081611ac4565b9050919050565b7f4e487b7100000000000000000000000000000000000000000000000000000000600052601160045260246000fd5b60008160011c9050919050565b6000808291508390505b6001851115611b8d57808604811115611b6957611b68611b07565b5b6001851615611b785780820291505b8081029050611b8685611b36565b9450611b4d565b94509492505050565b600082611ba65760019050611c62565b81611bb45760009050611c62565b8160018114611bca5760028114611bd457611c03565b6001915050611c62565b60ff841115611be657611be5611b07565b5b8360020a915084821115611bfd57611bfc611b07565b5b50611c62565b5060208310610133831016604e8410600b8410161715611c385782820a905083811115611c3357611c32611b07565b5b611c62565b611c458484846001611b43565b92509050818404811115611c5c57611c5b611b07565b5b81810290505b9392505050565b6000611c74826114f6565b9150611c7f8361150f565b9250611cac7fffffffffffffffffffffffffffffffffffffffffffffffffffffffffffffffff8484611b96565b905092915050565b6000611cbf826114f6565b9150611cca836114f6565b9250828202611cd8816114f6565b91508282048414831517611cef57611cee611b07565b5b5092915050565b7f4e487b7100000000000000000000000000000000000000000000000000000000600052601260045260246000fd5b6000611d30826114f6565b9150611d3b836114f6565b925082611d4b57611d4a611cf6565b5b828204905092915050565b6000611d61826114f6565b9150611d6c836114f6565b9250828201905080821115611d8457611d83611b07565b5b92915050565b6000606082019050611d9f600083018661175a565b611dac602083018561175a565b611db96040830184611500565b949350505050565b7f55534454207472616e73666572206661696c6564000000000000000000000000600082015250565b6000611df76014836117ed565b9150611e0282611dc1565b602082019050919050565b60006020820190508181036000830152611e2681611dea565b9050919050565b7f50726573616c65206e6f7420656e646564000000000000000000000000000000600082015250565b6000611e636011836117ed565b9150611e6e82611e2d565b602082019050919050565b60006020820190508181036000830152611e9281611e56565b9050919050565b7f4e6f20616c6c6f636174696f6e00000000000000000000000000000000000000600082015250565b6000611ecf600d836117ed565b9150611eda82611e99565b602082019050919050565b60006020820190508181036000830152611efe81611ec2565b9050919050565b6000611f10826114f6565b9150611f1b836114f6565b9250828203905081811115611f3357611f32611b07565b5b92915050565b7f4e6f7468696e6720746f20636c61696d00000000000000000000000000000000600082015250565b6000611f6f6010836117ed565b9150611f7a82611f39565b602082019050919050565b60006020820190508181036000830152611f9e81611f62565b9050919050565b7f546f6b656e207472616e73666572206661696c65640000000000000000000000600082015250565b6000611fdb6015836117ed565b9150611fe682611fa5565b602082019050919050565b6000602082019050818103600083015261200a81611fce565b9050919050565b7f5a65726f20616464726573730000000000000000000000000000000000000000600082015250565b6000612047600c836117ed565b915061205282612011565b602082019050919050565b600060208201905081810360008301526120768161203a565b9050919050565b7f416c726561647920656e64656400000000000000000000000000000000000000600082015250565b60006120b3600d836117ed565b91506120be8261207d565b602082019050919050565b600060208201905081810360008301526120e2816120a6565b9050919050565b7f496e76616c6964206d696e2f6d61780000000000000000000000000000000000600082015250565b600061211f600f836117ed565b915061212a826120e9565b602082019050919050565b6000602082019050818103600083015261214e81612112565b905091905056fea26469706673582212209865b2babc3cbc5af67324517faf090c18eee18ff1412be9aa833680094a994064736f6c634300081c0033",
  "linkReferences": {},
  "deployedLinkReferences": {}
}